:020000040800F2
:10000000005000201D3A0008A91D0008AB1D000883
:10001000AD1D0008AF1D0008B11D00080000000064
:10002000000000000000000000000000B31D0008F8
:10003000B51D000800000000B71D0008B91D00082C
:10004000653A0008653A0008653A0008653A000814
:10005000653A0008653A0008653A0008653A000804
:10006000653A0008653A0008653A0008653A0008F4
:10007000653A0008653A0008653A0008653A0008E4
:10008000653A0008653A0008653A0008C11D000895
:10009000D11D0008653A0008653A0008653A000875
:1000A000653A0008653A0008653A0008653A0008B4
:1000B000653A0008653A0008653A0008653A0008A4
:1000C000653A0008653A0008653A0008653A000894
:1000D000653A0008653A0008653A0008653A000884
:1000E000E11D0008653A0008653A000800000000BC
:1000F0000000000000000000000000000000000000
:0C01000000000000000000005FF808F1A3
:10010C000348044B834202D0034B03B1184770479A
:10011C007000002070000020000000000548064917
:10012C000B1AD90F01EBA301491002D0034B03B1F9
:10013C00184770477000002070000020000000007D
:10014C0010B5064C237843B9FFF7DAFF044B13B113
:10015C000448AFF300800123237010BD7000002011
:10016C0000000000683A000808B5044B1BB10449B4
:10017C000448AFF30080BDE80840CFE70000000062
:10018C0074000020683A000800B50A4C0546206847
:10019C0085B01C46C06852B1074BCDE901320091C5
:1001AC002B462246054900F023F800F07FFD044B56
:1001BC001A46F2E7000000202441000834410008F0
:1001CC00F43A000808B513460022FFF7DDFF00BF24
:1001DC000CB410B582B004AC54F8042B2346019433
:1001EC0000F036F902B0BDE8104002B0704700BF15
:1001FC000EB430B582B005AC54F8042B054D014655
:10020C0023462868019400F023F902B0BDE8304081
:10021C0003B070470000002070B50D4E0D4D761BDD
:10022C00B61006D00024013455F8043B9847A6427A
:10023C00F9D1094E094D03F011FC761BB61006D00E
:10024C000024013455F8043B9847A642F9D170BDFF
:10025C00A0410008A0410008A4410008A0410008EA
:10026C008842F0B40DD98B1883420AD9841832B164
:10027C00224613F8014D994202F8014DF9D1F0BC18
:10028C0070470F2A0ED80346541E002AF7D00134AB
:10029C000C44013B11F8012BA14203F8012FF9D1B9
:1002AC00F0BC704740EA01039B073AD1A2F110075A
:1002BC003F0901F1200606EB071601F1100300F1CE
:1002CC00100453F8105C103344F8105C53F81C5CA9
:1002DC00103444F81C5C53F8185C44F8185C53F860
:1002EC00145CB34244F8145CEBD17B1C1B0112F080
:1002FC000C0F194402F00F05034415D00E46043DB3
:10030C00AD0803EB850C1C1F56F8047B44F8047FE6
:10031C006445F9D10135AD002B44294402F00302A8
:10032C00B2E7541E0346B2E72A46ADE7F0B486079F
:10033C0046D0541E002A3CD0CAB2034602E014F147
:10034C00FF3436D303F8012B9D07F8D1032C29D9A0
:10035C00CDB245EA05250F2C45EA054533D9A4F164
:10036C001006360903F1200707EB061703F11002FC
:10037C0042E9045542E902551032BA42F8D1721CD6
:10038C0014F00C0F03EB021204F00F0613D0331F02
:10039C0023F003030433134442F8045B9342FBD170
:1003AC0006F003042CB1C9B21C4403F8011B9C4297
:1003BC00FBD1F0BC704734461346002CF3D1F8E760
:1003CC0014460346C2E71A462646E0E79368013B0B
:1003DC00002B93600FDA10B49469A34208DB0A294E
:1003EC0006D01368581C10601970084610BC704772
:1003FC0010BC00F07BBB1368581C106019700846C9
:10040C00704700BF9BB1F8B513440F4606465D1EFE
:10041C00541E01E0AC4208D03A4614F8011F304695
:10042C00FFF7D4FF431CF5D1F8BD0020F8BD002028
:10043C00704700BF936810B5144613B95360184643
:10044C0010BD00F01BFE0023C4E9013310BD00BF3A
:10045C002DE9F04F9FB08B4690461C46039018B187
:10046C008369002B00F0B980A34B9B4500F0BB8047
:10047C00A24B9B4500F0C980A14B9B4504BF039B3D
:10048C00D3F80CB0BBF80C30180740F1B480DBF893
:10049C001030002B00F0AF803023002120228DF88B
:1004AC00323098F8003005940B918DF83120954E30
:1004BC000127002B00F08980252B00F01781454681
:1004CC0003E0252B00F0A58025466B786C1C002BD7
:1004DC00F7D1B4EB080A78D04246534659460398F4
:1004EC00FFF790FF013070D00B9B6A7853440B934D
:1004FC00002A6AD000234FF0FF3201340693CDE975
:10050C0008338DF85B301C93079206E02C46069B53
:10051C00801B07FA00F0184306902546052215F8B3
:10052C00011B304600F0EEFFAA460028EED1069BD8
:10053C00D90644BF20228DF85B201A0748BF2B2216
:10054C00217848BF8DF85B202A2967D1059A11685C
:10055C00043200290592C0F29E8009916178A51C95
:10056C002E2974D0684C0322204600F0CBFF0028C3
:10057C0000F087804022069B001B02FA00F0034328
:10058C00069305F101082B78062219465F488DF871
:10059C00303000F0B7FF002800F083805C4B002B5C
:1005AC0072D005AB00935A465A4B06A90398AFF389
:1005BC0000808146B9F1FF3F07D00B9B4B440B9356
:1005CC0098F80030002B7FF477AFBBF80C305B064B
:1005DC0018D40B981FB0BDE8F08F00F02FFD464BE0
:1005EC009B457FF445AF039BD3F804B0BBF80C30AC
:1005FC0018073FF54CAF5946039800F0D7FA00287E
:10060C003FF44AAF4FF0FF30E4E7039BD3F808B058
:10061C0038E7B4EB080A3FF46DAF5DE7A1F13002A7
:10062C00092A88BFA2469BD8099B01E02C460135BC
:10063C00297803EB830302EB4303A1F13002092A6F
:10064C00AA46F3D92E2904F1020509938AD19AF806
:10065C0001102A292FD1059B0AF102001A680433D4
:10066C00002A079205939AF802100AF1030538DB69
:10067C00254C82460322204600F044FF00287FF4DC
:10068C0079AFA84655467EE7059B073323F0070351
:10069C000833059391E7494243F00203099106930D
:1006AC005CE705AB00935A461A4B06A9039800F079
:1006BC00D3F881467EE70023A1F13002092A079383
:1006CC0001D915E05546697803EB830302EB43032C
:1006DC00A1F13002092A05F1010AF3D90235079379
:1006EC0040E74FF0FF33824607933BE7444601E770
:1006FC00AA46013536E700BFC43A0008A43A000800
:10070C00843A0008644100086C41000870410008FC
:10071C00000000001104000810B4044C13460A46F3
:10072C000146206810BCFFF793BE00BF00000020FC
:10073C002DE9F0470C460969A56891468D42B8BF72
:10074C000D46156094F8431006461F46DDF82080D0
:10075C0011B16A1CC9F80020236899065CD5D9F838
:10076C0000200232C9F80020236813F0060F194646
:10077C001DD1E1688A1A002AD8BF194617DD002559
:10078C0004F1190A05E0E368D9F800209B1AAB4282
:10079C000CDD0123524639463046C047013005F185
:1007AC000105F0D14FF0FF30BDE8F087216894F8D7
:1007BC004330003318BF01238A060AD53021E218D2
:1007CC0082F8431094F845105A1C224482F84310C6
:1007DC00023304F1430239463046C0470130E1D0C0
:1007EC002368A26803F00603042B21691DD08A42FA
:1007FC0026DD4FF00009521A914400251A3401E00D
:10080C004D451DDA0123224639463046C04701309A
:10081C0005F10105F4D1C5E713F0060F13D094F8D8
:10082C004330003318BF0123D3E7D9F80000E36845
:10083C008A42A3EB000323EAE379DCDC002BDCDC4B
:10084C000020BDE8F087E168D9F800208A1A002A58
:10085C00D8BF194693DCAAE72DE9F0430C46097E74
:10086C0085B06E2906461746984604F1430C0C9841
:10087C006DD039D9732900F0F48044D9752900F072
:10088C000281782940F00F8178232268DFF854E246
:10089C0084F845300168150651F8043B016040F1BD
:1008AC00A180D10744BF42F020022260002B00F04F
:1008BC0093801022002184F8431060680028A06007
:1008CC00C0F2C680216821F004012160002B40F0A9
:1008DC00A280002840F0BE806546082A00F0AB805C
:1008EC00ACEB0503236141E0632900F0E3801AD8E7
:1008FC00002938D0582940F0D68084F84510226859
:10090C00DFF8E4E1C6E76F2900F0BD80702940F004
:10091C00CA8078232268DFF8CCE142F02002226002
:10092C0084F84530B6E7642902D0692940F0BB80D1
:10093C0022680368110603F1040557D51968056090
:10094C000B46002959DB0A22DFF89CE1B5E7036866
:10095C0022681D1D6169056015061B6802D45006CE
:10096C0000F1BB801960002365462361CDF800803F
:10097C003B4603AA21463046FFF7DAFE013020D071
:10098C002A46236939463046C047013019D02268BF
:10099C0003989207E36819D51A1A002A16DD002568
:1009AC0004F1190904E0E36803981A1AAA420DDD50
:1009BC0001234A4639463046C047013005F101054E
:1009CC00F1D14FF0FF3005B0BDE8F0839842B8BFCD
:1009DC00184605B0BDE8F0832168102221F02001F3
:1009EC00216067E7500648BF9BB25AE75106A5D570
:1009FC00B3F9003005601946A3E72D2061685B420E
:100A0C00002984F84300A16002DB22F0040222607A
:100A1C000A22DFF8D4E0654600E00B46B3FBF2F1A6
:100A2C0002FB11301EF80000934205F8010DF4D2C0
:100A3C00082A7FF455AF2368DB077FF551AF626856
:100A4C0023699A423FF74CAF3023013D2B7047E7A7
:100A5C00002BE0D19EF8003004F1420584F84230BE
:100A6C003BE703686268191D01601D680021284678
:100A7C0000F048FD002832D0401B6060206100234C
:100A8C0084F8433072E72268036812F0800F03F198
:100A9C0004051AD01B6805606F290CBF08220A22B6
:100AAC00DFF844E006E7012384F84210236104F1E7
:100ABC004205E4E70122036804F14205191D1B6895
:100ACC00016084F842302261D9E712F0400F0DBF6B
:100ADC001B6805601B880560DEE7198043E76068CA
:100AEC00CCE700BF8C41000878410008F8B50D46F2
:100AFC001446064608B1836943B3254B9C422AD061
:100B0C00244B9C4229D0244B9C4208BFF468A26918
:100B1C00A389A2601A0722D5236903B322686169ED
:100B2C00D31AEDB299422F4629DD0133A168501C2E
:100B3C000139A1602060157062699A4216D0A389B0
:100B4C00DB0701D50A2D11D03846F8BD00F076FA36
:100B5C000F4B9C42D4D17468D9E7B468D7E72146CF
:100B6C00304600F023F838B92369D7E721463046E0
:100B7C0000F03AF90028E7D04FF0FF37E4E72146C0
:100B8C00304600F031F90028F6D101232268CDE778
:100B9C00C43A0008A43A0008843A0008024B0A46FA
:100BAC0001461868FFF7A2BF000000203B4B70B550
:100BBC001D6806460C460DB1AB69DBB1384B9C4247
:100BCC001ED0384B9C424AD0374B9C4208BFEC6835
:100BDC00B4F90C2093B2190718D5206908B313F097
:100BEC0001022CD000226369A2605B42A36160B356
:100BFC00002070BD284600F021FA294B9C42E0D120
:100C0C006C68B4F90C2093B21907E6D4DD063CD518
:100C1C00580726D4206942F00803A3819BB2002810
:100C2C00DDD103F42072B2F5007FD8D030462146D6
:100C3C0000F01EFCA389206913F00102D2D19907A0
:100C4C0058BF6269A2600028D2D1B4F90C301A06E0
:100C5C00CFD543F04003A3814FF0FF3070BDAC689B
:100C6C00B6E7616B51B104F14403994204D03046AC
:100C7C0000F004FDB4F90C20002363630023206909
:100C8C0022F02402C4E90003C5E7092342F0400224
:100C9C0033604FF0FF30A28170BD00BF0000002018
:100CAC00C43A0008A43A0008843A000808B50620A3
:100CBC0000F05AFE012000F0ABFF00BF2DE9F0411F
:100CCC008F890C463A07804641D44B68002B59DD7E
:100CDC00E66A002E53D0002317F48052D8F8005047
:100CEC00216AC8F8003051D101234046B047431C5B
:100CFC005FD0A789E66A216A7F0705D56268636BB6
:100D0C00801A0BB1236CC01A024600234046B04730
:100D1C00461C45D1D8F80030B4F90C20002B55D026
:100D2C001D2B01D0162B5AD100222369C4E90032A5
:100D3C00616BC8F8005011B304F14403994202D01E
:100D4C00404600F09BFC00206063BDE8F0810E691A
:100D5C00AEB10D680E60B90714BF00236369AD1BFB
:100D6C00A3600AE02B463246A76A216A4046B84780
:100D7C000028A5EB000506440ADD002DF2DC00205E
:100D8C00BDE8F0810B6C002BA2DCF8E7606DB3E7DB
:100D9C00A3894FF0FF3043F04003A381BDE8F081FD
:100DAC00002322696360A3892260DA04C0D56065E0
:100DBC00BEE7D8F80030002B9BD01D2B0CD0162B87
:100DCC000AD0A38943F04003A381D9E72169C4E980
:100DDC000013D304ACD5EAE7C8F80050CFE742F0D3
:100DEC004002A281CCE700BF0B6923B310B50446C7
:100DFC0082B008B18369BBB1104B994212D0104B31
:100E0C00994216D00F4B994208BFE168B1F90C30EA
:100E1C002BB1204602B0BDE81040FFF74FBF0020B9
:100E2C0002B010BD6168F1E7019100F007F901997A
:100E3C00E2E7A168EAE70020704700BFC43A000867
:100E4C00A43A0008843A000820B1054B0146186802
:100E5C00FFF7CABF034B0449186800F0B3BA00BFD0
:100E6C0000000020803A0008F50D000800207047B3
:100E7C00014900F0A7BA00BFF50D0008002070472B
:100E8C0070B568254A1E05FB02F50E4605F1740186
:100E9C0000F048FC044640B100210C30666005F1BE
:100EAC0068022160A060FFF741FA204670BD00BFC8
:100EBC001E4B70B51D680646AB6943B34835D5E982
:100ECC000134013B05D51EE0013B5A1C04F16804BA
:100EDC0019D0B4F90C20002AF6D10025144B656604
:100EEC00C4E90055A560C4E90455A5612946E36031
:100EFC00082204F15C00FFF719FAC4E90D55C4E9A6
:100F0C001255204670BD2C682CB12546D7E72846D3
:100F1C0000F010F8D2E704213046FFF7B1FF044689
:100F2C0028600028F1D10C233360EAE7803A0008EE
:100F3C000100FFFF2DE9F84F0023334AC0E91233BB
:100F4C0012680365904208BF0123304908BF8361D2
:100F5C0081620546FFF7ACFF68602846FFF7A8FFE3
:100F6C00A86028460024FFF7A3FF04236E68E860FE
:100F7C002146F3607466C6E90044B460C6E90444D3
:100F8C00B46106F15C000822FFF7D0F9DFF888B0F5
:100F9C00AF68DFF888A0DFF88890DFF888801C4BFA
:100FAC00C6E9086BC6E90AA9C6F830802146FB6081
:100FBC0008227C66C7E90044BC60C7E90444BC61F4
:100FCC0007F15C00FFF7B2F9EE68124BC7E9087B3A
:100FDC00C7E90AA9C7F830802146F3607466C6E9F0
:100FEC000044B460C6E90444B46106F15C00082214
:100FFC00FFF79CF90123C6E9086BC6E90AA9C6F8F4
:10100C003080AB61BDE8F88F803A00087D0E000897
:10101C000900010012000200E51900080D1A000871
:10102C004D1A00086D1A0008024B0349186800F0AD
:10103C00C9B900BF803A0008F50D0008836903B9EF
:10104C0078E77047704700BF704700BF704700BF1C
:10105C00704700BF024B0349186800F08FB900BFFE
:10106C0000000020790E0008024B0349186800F0BC
:10107C0085B900BF00000020890E00089368002B82
:10108C0000F0FC802DE9F04FB1F90C300C469BB20E
:10109C00190783B0824690462BD522694AB313F0C8
:1010AC000202D8F8006033D000273D46D4F828B0AF
:1010BC00216ADFF8C492C5B14D452B463A4628BF8C
:1010CC004B465046D847002840F3CE80D8F808301D
:1010DC0007441B1A2D1AC8F80830002B00F0B380F7
:1010EC00D4F828B0216A002DE6D1D6E9007508366F
:1010FC00E1E721465046FFF759FD002840F03781C3
:10110C00B4F90C30D8F800609BB213F00202CBD1CA
:10111C0013F0010940F0B4804D46A7682068002DFB
:10112C0055D09A0540F1C080AF42BB4600F2EE802C
:10113C0013F4906F2FD0D4E9041707EB4707A0EBFB
:10114C00010B07EBD777681C7F105844B8423A461E
:10115C0084BF07463A465B0540F1F0801146504685
:10116C0000F0E0FA002800F0FC805A46216901905A
:10117C0000F00EFAA289019B22F4906242F08002E8
:10118C00A281A7EB0B0203EB0B006761AB462F466A
:10119C0023612060A2605A464946FFF761F8236834
:1011AC00A2685B44AB460025D71BA7602360D8F828
:1011BC000870D944A7EB0B07C8F80870002F42D071
:1011CC00B4F90C30A7689BB22068002DA9D1D6E9E0
:1011DC0000950836A3E70BF1080353F8047C9B46F3
:1011EC0053F8086C0833002FF7D03A460A213046E2
:1011FC0000F088F9002854D00130A0EB06094B46CA
:10120C0020682169BB4228BF3B468842626903D9EA
:10121C00A5681544AB421ADC9A4200F38180134650
:10122C00A56A3246216A5046A847051E1CDDB9EB5B
:10123C0005096ED00120D8F808302E445B1B7F1BAB
:10124C00C8F8083013BB002003B0BDE8F08F31465E
:10125C002A46FFF705F8236821462B4423605046A5
:10126C00FFF7C2FD0028E2D0B4F90C304FF0FF308C
:10127C0043F04003A38103B0BDE8F08F002070471A
:10128C0033469146104617464E469B46002FA2D039
:10129C000028B4D13A460A21304600F033F9002830
:1012AC00AAD17B1C9946ABE72369834217D36269A9
:1012BC00AA4214D82F4BA76A9D4294BF2B466FF0BD
:1012CC00004393FBF2F3216A02FB03F350464A46B8
:1012DC00B847B0F1000BC7DDA5EB0B0567E7AF42D4
:1012EC0028BF2F4649463A46FEF7BAFFA368226844
:1012FC00DB1B3A44BB46A3602260002BECD1214699
:10130C005046FFF771FD0028E6D0ADE72F46AB46FF
:10131C0041E721465046FFF767FD00288BD0A3E735
:10132C001A4631461D460193FEF79AFFA1682268C2
:10133C00019BC91A1344A160236078E7504600F062
:10134C0055FA034600287FF41CAF2169504600F083
:10135C0095F90C22B4F90C30CAF8002023F0800364
:10136C0084E70C22B4F90C30CAF800207EE74FF069
:10137C00FF3069E7FEFFFF7F00FCFF7F2DE9F041A6
:10138C0010F148071AD088460026D7E90154013DD0
:10139C000ED4A389013D012B06D9B4F90E300133CB
:1013AC0002D02046C04706436B1C04F16804F0D100
:1013BC003F68002FE9D13046BDE8F0813E4630460B
:1013CC00BDE8F0812DE9F84310F148061ED088469F
:1013DC0007464FF00009D6E90154013D10D4A3890A
:1013EC00013D012B08D9B4F90E30013304D021464C
:1013FC003846C04749EA00096B1C04F16804EED179
:10140C003668002EE7D14846BDE8F883B146484619
:10141C00BDE8F88370B50C46B1F90E1096B00029F2
:10142C0016461D4613DB6A4600F046FB00280EDB11
:10143C00019A4FF4806302F47042A2F50052B2FAA2
:10144C0082F2002052092A60336016B070BD00226F
:10145C00A3892A601B0604D540230020336016B0F4
:10146C0070BD4FF480630020336016B070BD00BFB8
:10147C008A890B46920706D5012103F1470259616F
:10148C001A601A61704770B582B001AB6A460C469F
:10149C000646FFF7BFFF00990546304600F042F9BB
:1014AC00B4F90C3070B1164A0099B262019A43F04B
:1014BC008003A3812060C4E904018AB92B43A38172
:1014CC0002B070BD9A05FBD4012123F0030304F193
:1014DC00470243F00203A381616122602261EFE7BE
:1014EC003046B4F90E1000F0FBFA10B9B4F90C3018
:1014FC00E4E7A38923F0030343F001031BB2DDE708
:10150C007D0E0008830770B4CDB23DD0541E0AB3D3
:10151C000378AB421FD0431C05E014F1FF3419D300
:10152C000278AA4217D013F0030F184603F10103F7
:10153C00F3D1032C11D84CB30378AB420BD0044439
:10154C00431C02E00278AA4205D09C42184603F1E3
:10155C000103F7D1002070BC704702460E02B6B2F0
:10156C002E4346EA0646136810467340A3F1013138
:10157C0021EA030313F0803F02F10402DCD1043CA6
:10158C00032C1046EFD8D6E71446D2E72046E2E704
:10159C00844641EA000313F0030349D1403A23D3B4
:1015AC000B6803604B6843608B688360CB68C360D7
:1015BC000B6903614B6943618B698361CB69C361BF
:1015CC000B6A03624B6A43628B6A8362CB6AC362A7
:1015DC000B6B03634B6B43638B6B8363CB6BC3638F
:1015EC0040304031403ADBD230320BD30B680360D1
:1015FC004B6843608B688360CB68C36010301031DC
:10160C00103AF3D20C3205D351F8043B40F8043BAA
:10161C00043AF9D2043208D0D2071CBF11F8013BAE
:10162C0000F8013B01D30B8803806046704700BF74
:10163C00082A13D38B07B1D010F00303AED0C3F13B
:10164C000403D21ADB071CBF11F8013B00F8013B65
:10165C00A4D331F8023B20F8023B9FE7043AD9D3DC
:10166C00013A11F8013B00F8013BF9D20B780370F9
:10167C004B7843708B7883706046704700293AD062
:10168C0038B551F8043C0C1F002BB8BFE4180546C4
:10169C0000F04EFA224B1A682AB1A2420DD92168E9
:1016AC006018824221D0626028461C60BDE8384038
:1016BC0000F040BAA34203D81A465368002BF9D164
:1016CC0011685018A04217D022D8216860188342A4
:1016DC0003BFD3E900030918C4E900136360546025
:1016EC002846BDE8384000F025BAD2E90002014492
:1016FC00C4E90012D8E770472068014450188342AF
:10170C001160EDD1D3E900030144C2E90013E7E70E
:10171C000C2328462B60BDE8384000F00BBA00BF04
:10172C008C000020F8B5CD1C25F0030508350C2DD8
:10173C0038BF0C25002D064633DBA94231D82A4F81
:10174C0000F0F6F93A6852B113685B1B04D43FE021
:10175C0023685B1B29D522465468002CF8D1796884
:10176C0000293BD02946304600F066F8431C28D0AF
:10177C00C41C24F00304A04205D0211A304600F00A
:10178C005BF801301DD02560304600F0D3F904F130
:10179C000B0020F00700231DC21A01D01B1AA35006
:1017AC00F8BD0C2200203260F8BD0B2B05D8A242EC
:1017BC00636811D05360E7E7144623601C4425602E
:1017CC00E2E70C233046336000F0B4F90020F8BD9A
:1017DC000B2BF1D8144653683B60D5E7304600F02C
:1017EC002BF87860BEE700BF8C00002009B3F8B579
:1017FC001446CAB106460D4600F09EF9A04202D32B
:10180C002F463846F8BD21463046FFF78BFF07467A
:10181C000028F6D022462946FFF7BAFE3046294664
:10182C00FFF72CFF3846F8BD2746FFF727FF384651
:10183C00F8BD1146FFF776BF38B50023064C0546B8
:10184C000846236000F0CEF9431C00D038BD236855
:10185C00002BFBD02B6038BDD804002010B58021A4
:10186C000446FFF75FFF606440B10022031F7C3029
:10187C0043F8042F8342FBD1002010BD4FF0FF3002
:10188C0010BD00BF436C0BB100207047E6E700BFF2
:10189C001F2970B5054608D8436C16460C464BB14B
:1018AC0053F8240043F8246070BD16224FF0FF302B
:1018BC002A6070BDFFF7D2FF08B96B6CF0E74FF0F0
:1018CC00FF3070BD1F2938B5054620D8426C0C4638
:1018DC006AB152F8213053B1012B16D0591C10D0DB
:1018EC000025204642F824509847284638BD284603
:1018FC0000F070F8224601462846BDE8384000F05A
:10190C0055B8162301202B6038BD002038BD162396
:10191C004FF0FF302B6038BD1F2921D838B5436CF0
:10192C0005460C4683B153F8242003EB84034AB1DB
:10193C00511C10D0012A0CD0002520461D60904768
:10194C00284638BD012038BDFFF788FF28B96B6CDD
:10195C00E9E7032038BD022038BD4FF0FF3038BD19
:10196C004FF0FF30704700BF024B01461868FFF77D
:10197C00A9BF00BF00000020024B0A4601461868B0
:10198C00FFF786BF00000020034B1868436C0BB1B7
:10199C000020704762E700BF00000020024B0146A8
:1019AC001868FFF7B9BF00BF0000002070B50D46E6
:1019BC000023074C064611462846236000F0FAF82F
:1019CC00431C00D070BD2368002BFBD0336070BD6E
:1019DC00D804002000F0DEB810B50C46B1F90E109A
:1019EC0000F0B2F8002803DB636D0344636510BD9F
:1019FC00A38923F48053A38110BD00BF002070473E
:101A0C002DE9F041B1F90C409846E3050D46174617
:101A1C00B1F90E10064609D424F48054AC81434627
:101A2C003A463046BDE8F04100F01EB802230022D1
:101A3C0000F068F8B5F90C40B5F90E10ECE700BFF2
:101A4C0010B50C46B1F90E1000F05CF8A389421CDD
:101A5C000EBF23F4805343F480536065A38110BD03
:101A6C00B1F90E1000F016B8F8B50E460025084C6A
:101A7C00114607461A463046256000F0C1F8431C53
:101A8C0000D0F8BD2368002BFBD03B60F8BD00BF35
:101A9C00D804002038B50023064C054608462360C0
:101AAC0000F068F8431C00D038BD2368002BFBD035
:101ABC002B6038BDD804002070B50D460023074CB0
:101ACC00064611462846236000F05CF8431C00D003
:101ADC0070BD2368002BFBD0336070BDD804002090
:101AEC0038B50023064C05460846236000F05AF82A
:101AFC00431C00D038BD2368002BFBD02B6038BDB5
:101B0C00D8040020F8B50E460025084C11460746AF
:101B1C001A463046256000F055F8431C00D0F8BD3D
:101B2C002368002BFBD03B60F8BD00BFD80400201D
:101B3C00704700BF704700BF51F8043C181F002BC2
:101B4C00BCBF0B58C0187047F8B50E460025084CA2
:101B5C00114607461A463046256000F03BF8431CF8
:101B6C0000D0F8BD2368002BFBD03B60F8BD00BF54
:101B7C00D80400205822024B4FF0FF301A607047F7
:101B8C00D80400205822024B4FF0FF301A607047E7
:101B9C00D80400205822024B4FF0FF301A607047D7
:101BAC00D80400205822024B00201A60704700BF56
:101BBC00D80400205822024B4FF0FF301A607047B7
:101BCC00D80400205822024B4FF0FF301A607047A7
:101BDC00D80400205822024B4FF0FF301A60704797
:101BEC00D8040020044A05491368002B08BF0B4693
:101BFC00184410601846704794000020E004002040
:101C0C005822024B4FF0FF301A607047D804002066
:101C1C00FEE700BF2DE9F04186B000240294039446
:101C2C0004940594294B9A6942F004029A619A69CA
:101C3C0002F004020092009A9A6942F008029A613A
:101C4C009B6903F008030193019B214D224601215E
:101C5C00284600F0ABFD1F4E22464FF4F85130469B
:101C6C0000F0A4FD01270297039704944FF002089B
:101C7C00CDF8148002A9284600F088FCFF230293BB
:101C8C000394049402A9304600F080FC4FF4F853FE
:101C9C00029303970494CDF8148002A9304600F007
:101CAC0075FC4FF4004302930B4B0393049402A96D
:101CBC00284600F06BFC22462146282000F09CFDB3
:101CCC00282000F0CDFD06B0BDE8F08100100240E8
:101CDC0000080140000C014000002110FEE700004C
:101CEC0008B50E480E4B0360082343604FF00043C9
:101CFC0083600023C3604FF4003202614FF4401242
:101D0C004261037643768376C3760377437701F09B
:101D1C0049FB00B908BDFFF7E1FF00BFAC04002090
:101D2C000064004000B591B0002307930893099319
:101D3C000C9301930293039304930593022206924E
:101D4C0001210A9110210B910D920E934FF4601307
:101D5C000F9306A800F026F980B90F2301930221F6
:101D6C000291002303934FF480620492059301A81F
:101D7C0000F056FB20B911B05DF804FBFFF7AEFF85
:101D8C00FFF7ACFF08B500F0BFF8FFF7CBFFFFF78C
:101D9C0041FFFFF7A5FF00F0BDFDFCE77047FEE734
:101DAC00FEE7FEE7FEE770477047704708B500F0A6
:101DBC00BDF808BD08B5024801F005FD08BD00BF1F
:101DCC00AC04002008B5024801F0FDFC08BD00BFC2
:101DDC00AC04002008B54FF4004000F0EDFC08BD49
:101DEC0082B00E4B9A6942F001029A619A6902F034
:101DFC0001020092009ADA6942F08052DA61DB69E2
:101E0C0003F080530193019B054A536823F0E06370
:101E1C0043F00073536002B0704700BF00100240E3
:101E2C000000014030B587B0002302930393049364
:101E3C00059302681F4B9A4201D007B030BD03F5E1
:101E4C00D633DA6942F00072DA61DA6902F00072B4
:101E5C000092009A9A6942F004029A619B6903F01D
:101E6C0004030193019B4FF4006302930024039439
:101E7C000494114D02A9284600F088FB4FF48053BE
:101E8C000293022303930323059302A9284600F02F
:101E9C007DFB22462146132000F0AEFC132000F0FF
:101EAC00DFFC22462146142000F0A6FC142000F092
:101EBC00D7FCC2E7006400400008014010B504469E
:101ECC000E4B18784FF47A73B3FBF0F30C4A10688E
:101EDC00B0FBF3F000F0D2FC68B90F2C01D9012053
:101EEC000AE0002221464FF0FF3000F085FC054B44
:101EFC001C60002000E0012010BD00BF6400002029
:101F0C006C0000206800002008B5074A136843F0F5
:101F1C0010031360032000F05DFC0020FFF7CEFFE0
:101F2C00FFF75EFF002008BD00200240034A116845
:101F3C00034B1B780B441360704700BFD404002084
:101F4C0064000020014B1868704700BFD4040020C7
:101F5C0038B50446FFF7F6FF0546B4F1FF3F02D053
:101F6C00044B1B781C44FFF7EDFF401BA042FAD337
:101F7C0038BD00BF6400002082B0084B1B68084AC3
:101F8C00A2FB03235B0A00FB03F3019300BF019B3D
:101F9C005A1E0192002BF9D102B070476C00002040
:101FAC00D34D6210002800F0F18170B582B0044668
:101FBC00036813F0010F2CD0AA4B5B6803F00C03E1
:101FCC00042B1DD0A74B5B6803F00C03082B12D01D
:101FDC006368B3F5803F41D0002B55D103F18043AA
:101FEC0003F504331A6822F480321A601A6822F45A
:101FFC0080221A6037E09B4B5B6813F4803FE7D07C
:10200C00984B1B6813F4003F03D06368002B00F05F
:10201C00BF81236813F0020F75D0924B5B6813F0ED
:10202C000C0F5FD08F4B5B6803F00C03082B54D064
:10203C002369002B00F089808B4B01221A60FFF77B
:10204C0081FF0546874B1B6813F0020F74D1FFF715
:10205C0079FF401B0228F5D903209EE1814A1368C1
:10206C0043F480331360636843B3FFF76BFF05469B
:10207C007C4B1B6813F4003FCBD1FFF763FF401B75
:10208C006428F5D9032088E1B3F5A02F09D0754B4E
:10209C001A6822F480321A601A6822F480221A60BC
:1020AC00E1E703F18043A3F53C331A6842F4802244
:1020BC001A601A6842F480321A60D4E7FFF742FFC4
:1020CC000546684B1B6813F4003FA2D0FFF73AFF9C
:1020DC00401B6428F5D903205FE1624B5B6813F465
:1020EC00803FA5D15F4B1B6813F0020F03D023690F
:1020FC00012B40F04F815B4A136823F0F8036169B0
:10210C0043EAC1031360236813F0080F32D0A369AC
:10211C00002B45D0554B01221A60FFF713FF0546E3
:10212C00504B5B6A13F0020F21D1FFF70BFF401BE2
:10213C000228F5D9032030E14A4A136823F0F8034A
:10214C00616943EAC1031360DDE7474B00221A6063
:10215C00FFF7F8FE0546434B1B6813F0020FD2D075
:10216C00FFF7F0FE401B0228F5D9032015E10120F2
:10217C00FFF702FF236813F0040F00F09780394B30
:10218C00DB6913F0805F1DD1364BDA6942F0805267
:10219C00DA61DB6903F080530193019B012512E0A6
:1021AC00324B00221A60FFF7CDFE05462D4B5B6AC1
:1021BC0013F0020FDED0FFF7C5FE401B0228F5D945
:1021CC000320EAE000252A4B1B6813F4807F11D012
:1021DC00E368012B22D0002B38D103F1804303F5A7
:1021EC0004331A6A22F001021A621A6A22F00402FB
:1021FC001A6218E01E4A136843F480731360FFF7E9
:10220C00A1FE06461A4B1B6813F4807FE0D1FFF742
:10221C0099FE801B6428F5D90320BEE0114A136A8D
:10222C0043F001031362E36873B3FFF78BFE0646BA
:10223C000C4B1B6A13F0020F37D1FFF783FE801B88
:10224C0041F288339842F3D90320A6E0052B11D034
:10225C00044B1A6A22F001021A621A6A22F0040272
:10226C001A62E0E700100240000042428004424241
:10227C00007000404D4B1A6A42F004021A621A6A4E
:10228C0042F001021A62CEE7FFF75CFE0646474BAE
:10229C001B6A13F0020F08D0FFF754FE801B41F2AB
:1022AC0088339842F3D9032077E0E5B9E369002B32
:1022BC0072D03E4A526802F00C02082A56D0022B09
:1022CC0017D03B4B00221A60FFF73CFE0446374BFD
:1022DC001B6813F0007F47D0FFF734FE001B022869
:1022EC00F5D9032059E0314AD36923F08053D361E7
:1022FC00DCE72F4B00221A60FFF724FE05462B4B20
:10230C001B6813F0007F06D0FFF71CFE401B022851
:10231C00F5D9032041E0236AB3F5803F1AD0234955
:10232C004B6823F47413226A606A024313434B60B4
:10233C001F4B01221A60FFF705FE04461B4B1B685E
:10234C0013F0007F0ED1FFF7FDFD001B0228F5D91D
:10235C00032022E0154A536823F40033A1680B4391
:10236C005360DCE7002018E0002016E0012B16D0AB
:10237C000E4B5B6803F48031226A914211D103F455
:10238C007013626A93420ED1002006E00120704760
:10239C00012002E0012000E0002002B070BD01200D
:1023AC00FBE70120F9E70120F7E700BF001002402E
:1023BC006000424286B0164B0FCB0DF1180C0CE9A5
:1023CC000F0040F20123ADF80430124B5B6803F0B0
:1023DC000C02082A02D0104806B07047C3F383429F
:1023EC00624412F8102C13F4803F0CD0094B5B683C
:1023FC00C3F34043634413F8143C074800FB02F05A
:10240C00B0FBF3F0E8E7054800FB02F0E4E700BF9F
:10241C00E43A00080010024000127A0000093D0066
:10242C00002800F0A08070B50D460446524B1B6886
:10243C0003F007038B420BD24F4A136823F00703B8
:10244C000B431360136803F007038B4240F08D803D
:10245C00236813F0020F17D013F0040F04D0474A6F
:10246C00536843F4E0635360236813F0080F04D0FF
:10247C00424A536843F460535360404A536823F014
:10248C00F003A1680B435360236813F0010F31D0A4
:10249C006368012B20D0022B25D0384A126812F029
:1024AC00020F64D035494A6822F0030213434B6093
:1024BC00FFF748FD0646314B5B6803F00C0362687E
:1024CC00B3EB820F16D0FFF73DFD801B41F2883332
:1024DC009842F0D9032045E0284A126812F4003FD4
:1024EC00E0D101203EE0254A126812F0007FD9D1DC
:1024FC00012037E0204B1B6803F00703AB420AD9DD
:10250C001D4A136823F007032B431360136803F071
:10251C000703AB422DD1236813F0040F06D0174AE2
:10252C00536823F4E063E1680B435360236813F0B2
:10253C00080F07D0114A536823F46053216943EA0A
:10254C00C1035360FFF736FF0C4B5B68C3F30313F7
:10255C000B4AD35CD8400B4B18600B4B1868FFF739
:10256C00ADFC002070BD012070470120FAE701206E
:10257C00F8E70120F6E700BF0020024000100240FF
:10258C00F83A00086C00002068000020F0B482B01B
:10259C0000252C46A3E07F4FBB4210D007D97E4FBD
:1025AC00BB420CD007F58037BB4208D013E0A7F52F
:1025BC008017BB4203D007F57027BB4207D18B684D
:1025CC00002B58D0012B51D04261082503E0A7F510
:1025DC008017BB42F3D0FF2E4FD88446FF2E4FD826
:1025EC00A200DCF800300F27974023EA070305FA16
:1025FC0002F21343CCF800304B6813F0805F6DD0BF
:10260C00664B9A6942F001029A619B6903F00103DF
:10261C000193019BA208971C614B53F8273004F0DF
:10262C000307BF004FF00F0C0CFA07FC23EA0C0C4D
:10263C005C4B98422AD003F58063984200F08A8064
:10264C0003F58063984200F0878003F5806398421D
:10265C001AD004231BE0CD68BDE7CD680435BAE77A
:10266C00CD680835B7E7CD680C35B4E702610825AD
:10267C00B1E70025AFE70425ADE700F1040CADE7A9
:10268C00A4F108029200ACE7032300E00023BB4056
:10269C0043EA0C030232424F47F822304B6813F4E2
:1026AC00803F5BD0404A1368334313604B6813F48C
:1026BC00003F59D03C4A5368334353604B6813F482
:1026CC00801F57D0384A9368334393604B6813F498
:1026DC00001F55D0344AD3681E43D66001340B68B2
:1026EC0033FA04F252D00122A24003EA020632EA83
:1026FC000303F3D14B68122B3FF64DAF122B3FF671
:10270C006AAF01A757F823F0CB2500086326000811
:10271C006D2600087F260008E3250008E325000845
:10272C00E3250008E3250008E3250008E32500085D
:10273C00E3250008E3250008E3250008E32500084D
:10274C00E3250008E3250008E325000867260008B8
:10275C007326000801239AE7022398E7124A1368AC
:10276C0023EA06031360A1E70F4A536823EA060322
:10277C005360A3E70C4A936823EA06039360A5E72A
:10278C00094AD36823EA0606D660A7E702B0F0BC74
:10279C00704700BF000022100000311000100240F2
:1027AC000000014000080140000401400AB1016131
:1027BC00704709040161704708B5054B5B6903421A
:1027CC0000D108BD024B586100F082F8F9E700BF58
:1027DC0000040140074AD36823F4E0631B041B0C7C
:1027EC00000200F4E060034343F0BF6343F40033A2
:1027FC00D360704700ED00E030B4174BDB68C3F3D7
:10280C000223C3F10704042C28BF04241D1D062D2C
:10281C0018D9033B4FF0FF3505FA04F421EA040103
:10282C00994005FA03F322EA0303194300280BDB52
:10283C000901C9B200F1604000F5614080F8001355
:10284C0030BC70470023E5E700F00F000901C9B266
:10285C00024B1954F4E700BF00ED00E014ED00E06A
:10286C00002807DB00F01F02400901239340024AB5
:10287C0042F82030704700BF00E100E00138B0F1B1
:10288C00807F0AD2064B5860064AF02182F823104A
:10289C000020986007221A6070470120704700BF23
:1028AC0010E000E000ED00E0704700B58BB00021B7
:1028BC000391049105910691079108910991019159
:1028CC00029101AB03AA00F0C0FE0BB05DF804FB53
:1028DC000C4B59680C4A1368CB1A1160B3F5B06FE6
:1028EC0004D20A490A6813440B60704708490A6805
:1028FC001344A3F5B0630B60044A136803F5B0638B
:10290C0013607047001000E0A8040020980000201D
:10291C00A0000020F0B595B0614AD36843F08073F5
:10292C00D360604B00225A601A6842F001021A60B0
:10293C005D495E4800F0E4F920B35C4800F080FA91
:10294C00054610B310907A231193129320231393FE
:10295C0000230B930C9301220D920693079308937B
:10296C0009930A930E920E230F93514C06A92046FD
:10297C0000F0BEFD204600F03AFE0221204600F099
:10298C0004FF57E0FFF7AAF9D7E74A4B4A4A472119
:10299C004A48FDF7F9FB092C17D9494BA3FB042333
:1029AC00C3F3C7033033DBB28DF81430444BA3FBB5
:1029BC000423DB0803EB8303A4EB430330338DF8D0
:1029CC00153000238DF8163052E02023ECE7C3F1CC
:1029DC0020034FF0FF349C405922691C2846FDF718
:1029EC003FFC592205F17B0105F17A00FDF738FC1B
:1029FC00592205F1F50105F1F400FDF731FC5922DE
:102A0C0005F26F1105F5B770FDF72AFC85F85940F2
:102A1C00230A85F8D330230C85F84D31230E85F825
:102A2C00C731224800F0DEF808B9FFF757F96420E7
:102A3C00FFF78EFA234B1F68234B1868234E33681D
:102A4C00FB1A23490C68041B1A19376008606424AC
:102A5C0004FB0324013CB4FBF2F4632C9BD93A2312
:102A6C008DF814303B238DF8153000238DF816307B
:102A7C0005AB029320230193009300235A2215499E
:102A8C0010A800F08FFB63019BB26333124CA4FBC4
:102A9C000323C3F34713202B99D9202397E700BFB7
:102AAC00F0ED00E0001000E0303B0008A800002032
:102ABC00AC040020083B0008283B0008183B000829
:102ACC00CDCCCCCC98000020A00000209C00002095
:102ADC00A4000020C03D00081F85EB5138B5D0B1D3
:102AEC00044600F02BFA0723A2896189204600F0E6
:102AFC00F9F914230022E189204600F0F3F920466D
:102B0C0000F05CFA05466723E2890021204600F0BC
:102B1C00E9F9284638BD034B034A59210348FDF710
:102B2C0033FB00BF403B0008983B0008503B0008BB
:102B3C0038B560B105464FF4FA742846FFF7CEFF5E
:102B4C0010F0900F09D0013CF7D1002006E0044BA7
:102B5C00044A66210448FDF717FB012038BD00BF6D
:102B6C00403B0008AC3B0008503B0008F8B540B1B6
:102B7C000D4616460446FFF7DBFF074638B93846C4
:102B8C00F8BD154B154A78211548FDF7FDFA20467E
:102B9C0000F0F4F9CDB96089A18907230022014323
:102BAC00204600F09FF9E089A18AA28806FA02F279
:102BBC00142392B20143204600F094F96723E28972
:102BCC000021204600F08EF9D9E707236289A189FC
:102BDC00204600F087F9E6E7403B0008C43B0008BC
:102BEC00503B00082DE9F047A0B307464FF0000911
:102BFC00B9F1010F74D83C4B13F8098087B3B9F1C4
:102C0C00010F33D8B9F1000F36D100233A89194698
:102C1C00384600F067F94FF0000ABAF1030F5AD8A2
:102C2C00CAEB0A140AEB84046400A4B2C9EB0913BE
:102C3C0009EB83039BB21C44A4B20AF0030242F0DA
:102C4C00B80200213846FFF791FF0346002848D010
:102C5C0000251CE0254B264A9E212648FDF794FAB8
:102C6C00224B254A90212348FDF78EFA234B224A0A
:102C7C0091212048FDF788FA00231A4639893846F5
:102C8C0000F030F9C7E70134A4B20135EDB23C2DA8
:102C9C001CD83B1993F8306093F81832B342F2D039
:102CAC003B1983F8186205EB080202F07F02002141
:102CBC003846FFF75BFF034698B132460121384690
:102CCC00FFF754FF03460028DDD10AE00AF1010AA0
:102CDC005FFA8AFAA1E709F101095FFA89F987E736
:102CEC0001231846BDE8F087283C0008403B00084B
:102CFC00E83B0008503B0008D43B0008643B00084C
:102D0C0070B538B30D46044651B34FF4F472FF213D
:102D1C0000F50670FDF70AFB4FF4F472002104F184
:102D2C003000FDF703FB95E80F0084E80F00204608
:102D3C0000F096F83A4E3346EA89E988204600F0CE
:102D4C00D1F83346EA880021204600F0CBF8012068
:102D5C0000252BE0334B344AC1213448FDF714FADB
:102D6C00334B314AC2213148FDF70EFA2D4B314A13
:102D7C0090212E48FDF708FA2F4B2E4A91212B4813
:102D8C00FDF702FA00231A462189204600F0AAF822
:102D9C00EE2200212046FFF7E9FEB0B9D8B900BBFE
:102DAC0028BB58BB80BBA8B30135EDB2012D31D87F
:102DBC00002CDBD0012DDFD8002DE3D1002322899C
:102DCC001946204600F08EF8E2E7A42200212046A6
:102DDC00FFF7CCFEE2E7A92200212046FFF7C6FE52
:102DEC00DDE7AF2200212046FFF7C0FED8E7134BEA
:102DFC005A5D00212046FFF7B9FED2E7E2220021FE
:102E0C002046FFF7B3FECDE7C02200212046FFF796
:102E1C00ADFEC8E700B970BD2046FFF7E3FEFAE748
:102E2C0000C40900403B0008FC3B0008503B000874
:102E3C00883B0008D43B0008643B0008243C000895
:102E4C0008B508B1303008BD024B034AF3210348E2
:102E5C00FDF79AF9403B00080C3C0008503B000879
:102E6C00F8B5002831D003464FF6FF7202828188F4
:102E7C00FF228A4092B28282C7880689458984895A
:102E8C00C0893A4332432A43224302435A82880080
:102E9C004FF0FF31A0F12002C0F1200401FA02F240
:102EAC0021FA04F422438140C8439861D043D8618D
:102EBC0001F08830186202F08830586201F033312A
:102ECC00996202F03332DA62F8BD034B034A1C21DB
:102EDC000348FDF759F900BF403B0008503C00087F
:102EEC002C3C000838B5D8B10446008A20EA010110
:102EFC0089B20A43228272B6228A658A2A402068E5
:102F0C00C16821EA05010A43C26062B63BB1074AB7
:102F1C0052681A44054B5B68D31A002BFADC38BD97
:102F2C00034B044A36210448FDF72EF9001000E04B
:102F3C00403B0008603C00082C3C000810B588B1F0
:102F4C00034672B6026A006801689C6921400A4314
:102F5C0002605A6A18684168DB690B40134343608E
:102F6C0062B610BD024B034A46210348FDF70CF92B
:102F7C00403B0008783C00082C3C000810B588B198
:102F8C00034672B6826A006801689C6921400A4354
:102F9C000260DA6A18684168DB690B4013434360CE
:102FAC0062B610BD024B034A50210348FDF7ECF802
:102FBC00403B0008983C00082C3C000808B530B198
:102FCC000346026890689B88D840C0B208BD034B8A
:102FDC00034A5A210348FDF7D7F800BF403B0008CD
:102FEC00B83C00082C3C000810B520B10446FF2A60
:102FFC000ED000200AE0074B074A12210748FDF7C4
:10300C00C3F82378134004F8013B01308842F8D30D
:10301C0010BD00BFCC3C00085C3D0008E03C000843
:10302C00F8B59DF8187018B1054639B1002415E0B3
:10303C000C4B0D4A2F210D48FDF7A6F80C4B0A4AF4
:10304C0030210A48FDF7A0F811F8010B184138405F
:10305C0040B22E78704005F8010B01349442F3D342
:10306C00F8BD00BFCC3C0008783D0008E03C0008EF
:10307C00F43C0008F8B59DF8187028B1044649B125
:10308C000FB1072B19D9F8BD0D4B0E4A1F210E4855
:10309C00FDF77AF80D4B0B4A20210B48FDF774F81D
:1030AC0011F8010B9840384040B22678704004F873
:1030BC00010B01359542F3D3E5E70025FAE700BF94
:1030CC00CC3C0008643D0008E03C0008F43C0008DF
:1030DC002DE9F84390B3074684688C4253D9C068F5
:1030EC00904250D9641A9C4228BF1C46801A089BF7
:1030FC00984228BF184602F0070303440733DD0843
:10310C00072B21D902F00703204E16F803C01044F8
:10311C0000F007001E4B13F80090D7F80080D3087E
:10312C007E6806FB0316012D14D06246214608EB7F
:10313C000600FFF759FF7B681E441CE0154B164A2E
:10314C003D211648FDF720F8154B134A4A21134828
:10315C00FDF71AF84CEA0902214608EB0600FFF7C6
:10316C0043FF10E02246002108EB0600FDF7DEF8D5
:10317C007B681E44013D022DF4D84A46214608EBDB
:10318C000600FFF731FFBDE8F88300BFB03D000833
:10319C00B83D0008043D0008903D0008E03C0008E4
:1031AC00143D00082DE9F04F8DB0169D179C00289A
:1031BC0049D08A4617461E468346002949D0189B9B
:1031CC00002B4CD000942B4632463946FFF780FF3B
:1031DC00DBF80830BB4240F2D180DBF80C20B24265
:1031EC0040F2CC80DB1BAB4228BF2B460893921BD2
:1031FC00A24228BF2246DAF81040944228BF144657
:10320C00002C32D006F007020492C2F10803DBB2A4
:10321C00069313190733DA080A92072B2BD9344477
:10322C0004F00704574B1B5D0B93DAF80090DBF8A6
:10323C0000300593F608DBF8043003FB06730793A4
:10324C000023099343E0504B504A69215048FCF746
:10325C009BFF504B4D4A6A214D48FCF795FF4E4B56
:10326C004A4A6B214A48FCF78FFF4C4B474A78215E
:10327C004748FCF789FF4A4B444A7E214448FCF7F7
:10328C0083FF0C46641ADAF8081001FB04F4DAF830
:10329C0000301D5D0134089B9D4228BF1D460A9BD2
:1032AC00012B24D10B9B0093049B2A4609EB0401B0
:1032BC000598079C2044FFF7DDFE079B2B440793E2
:1032CC00089B5B1B089359D0099B01330993189BEE
:1032DC00099A9C5C002C51D09AF80410A142D0D8C9
:1032EC00631ABAF806209342CCDB0C46CAE7FF23DC
:1032FC000093049B2A4609EB04010598079F384468
:10330C00FFF7B8FEDBF804603E440A9F03951CE00F
:10331C00059B9D194FF0FF08CDF80080069B039A82
:10332C0009EB04012846FFF77BFEDAF80C301C444D
:10333C00CDF80080049B039A09EB04012846FFF7A3
:10334C0099FEDBF804301E44013F022FE0D8039DA8
:10335C00059B1E440B9F0097069B2A4609EB040114
:10336C003046FFF75DFEDAF80C1021440097049B01
:10337C002A4649443046FFF77DFE9EE70DB0BDE876
:10338C00F08F00BFA83D0008043D00089C3D0008DC
:10339C00E03C0008283D0008383D0008483D000886
:1033AC00143D0008002800F0A18038B5044690F8C0
:1033BC002030D3B12268136843F001031360FEF789
:1033CC00C1FD054623685A6812F0010F10D1FEF7B3
:1033DC00B9FD401B0A28F5D9636A43F400336362D4
:1033EC00052384F82030012038BDFEF71BFDE1E7F2
:1033FC001A6822F002021A60FEF7A4FD0546236843
:10340C005A6812F0020F0DD0FEF79CFD401B0A28E3
:10341C00F5D9636A43F400336362052384F82030E2
:10342C000120E1E7227E012A3DD01A6822F08002B9
:10343C001A60637E012B3BD02268136823F0400393
:10344C001360A37E012B39D02268136823F020036C
:10345C001360E37E012B37D02268136843F010030E
:10346C001360237F012B35D02268136823F00803E7
:10347C001360637F012B33D02268136823F004039D
:10348C001360A368E2681343226913436269134310
:10349C006268013A21681343CB610020606201230A
:1034AC0084F82030A0E71A6842F080021A60C0E766
:1034BC002268136843F040031360C2E72268136864
:1034CC0043F020031360C4E72268136823F0100351
:1034DC001360C6E72268136843F008031360C8E75B
:1034EC002268136843F004031360CAE70120704795
:1034FC00026890F82030013BDBB2012B05D9436AFE
:10350C0043F4802343620120704770B4D2F8003238
:10351C0043F00103C2F800324B6903F01F03012092
:10352C0000FA03F3D2F81C02DC4320EA0300C2F8D1
:10353C001C02C869A8B9D2F80C022040C2F80C02CF
:10354C00CE688D88486945EA0645483042F83050C7
:10355C008E680D88486945EA0645483002EBC00084
:10356C004560C869012819D0886970BBD2F804027B
:10357C002040C2F80402086968BBD2F81402044067
:10358C00C2F81442096A01292BD0D2F8003223F078
:10359C000103C2F80032002070BC7047D2F80C0254
:1035AC001843C2F80C020E688D88486945EA064536
:1035BC00483042F830508E688D89486945EA064596
:1035CC00483002EBC0004560CEE7D2F80402184345
:1035DC00C2F80402CFE7D2F814021843C2F814025E
:1035EC00D0E7D2F81C120B43C2F81C32CDE770B5F1
:1035FC00044690F82050EDB2012D06D0436A43F4F6
:10360C00002343620125284670BD022380F8203038
:10361C000268136823F001031360FEF793FC06465F
:10362C0023685B6813F0010F0CD0FEF78BFC831B37
:10363C000A2BF5D9636A43F400336362052384F8DB
:10364C002030E0E700256562DDE730B490F82040DB
:10365C00013CE4B2012C00F2918051B90468E46899
:10366C0014F0030F10D1436A43F40013436201209A
:10367C0089E00468246914F0030F05D1436A43F40C
:10368C000013436201207EE0056801F11B04240154
:10369C002C5904F004049460002C61D1056801F1EC
:1036AC001B0424012C59640D1460056801F11B04E2
:1036BC0024012D5905F00205D560056825446D6877
:1036CC0005F00F051561056825446D68C5F30725E0
:1036DC00956105682C446468240C5461026802EB03
:1036EC000112D2F8B8211A70026802EB0112D2F85A
:1036FC00B821C2F307225A70026802EB0112D2F809
:10370C00B821C2F307429A70026802EB0112D2F898
:10371C00B821120EDA70026802EB0112D2F8BC2149
:10372C001A71026802EB0112D2F8BC21C2F3072213
:10373C005A71026802EB0112D2F8BC21C2F30742A3
:10374C009A71026802EB0112D2F8BC21120EDA71E6
:10375C0071B90268D36843F02003D360002012E0F3
:10376C00056801F11B0424012C59E40854609CE702
:10377C000268136943F020031361EFE7436A43F4D3
:10378C0080234362012030BC704790F82030013B0D
:10379C00DBB2012B05D9436A43F480234362012039
:1037AC007047026853691943516100207047704794
:1037BC007047704770477047704770477047704745
:1037CC007047704770472DE9F84F054603685C69F0
:1037DC00D3F804809F68D3F80CB0D3F810A0D3F8BA
:1037EC00189014F001063BD017F0010616D00122F8
:1037FC009A6017F0020F08D117F0040F0CD117F0D4
:10380C00080606D04FF4805608E0FFF7D0FF0026DC
:10381C0004E0FFF7CFFF01E04FF4006617F4807F60
:10382C000DD02B684FF480729A6017F4007F40F033
:10383C00868017F4806F00F0868046F4005617F4EB
:10384C00803F0DD02B684FF480329A6017F4003F04
:10385C0040F0838017F4802F00F0838046F40046FC
:10386C0014F0080F07D01BF0100F04D046F40076AC
:10387C002B681022DA6014F0040F02D01BF0080F32
:10388C0079D114F0020F04D02B68DB6813F0030F0E
:10389C0078D114F0400F07D01AF0100F04D046F472
:1038AC0080662B6810221A6114F0200F02D01AF0D7
:1038BC00080F6BD114F0100F04D02B681B6913F098
:1038CC00030F6AD114F4003F02D018F0100F68D126
:1038DC0014F4803F02D018F0080F69D114F4004F93
:1038EC007AD018F0040F74D014F4807F04D019F03F
:1038FC00010F01D046F0010614F4007F04D019F03A
:10390C00020F01D046F0020614F4806F04D019F0B7
:10391C00040F01D046F0040614F4006F59D019F0CE
:10392C00700956D0B9F1400F65D058D8B9F1200FB5
:10393C005ED0B9F1300F42D146F0200644E0284663
:10394C00FFF736FF7BE717F4006F02D046F4804692
:10395C0075E72846FFF72FFF71E72846FFF729FF89
:10396C007EE717F4002F02D046F4803678E728461D
:10397C00FFF722FF74E72B680822DA602846FFF76E
:10398C001CFF7EE72846FEF790FF82E72B68082293
:10399C001A612846FFF713FF8CE72846FFF70EFF46
:1039AC0090E72B6810225A602846FFF709FF8FE733
:1039BC002B6808225A602846FFF703FF8EE7B9F1FF
:1039CC00100F01D146F008062A68936923F07003A2
:1039DC0093612B6804225A609EB9BDE8F88FB9F147
:1039EC00500F0BD0B9F1600FEED146F48076EBE7B7
:1039FC0046F01006E8E746F04006E5E746F080069C
:103A0C00E2E76B6A1E436E622846FFF7DBFEE4E7D3
:103A1C000C480D490D4A002302E0D458C45004331D
:103A2C00C4188C42F9D30A4A0A4C002301E01360F3
:103A3C000432A242FBD3FEF737FFFCF7EDFBFEF797
:103A4C00A1F970470000002070000020A841000878
:103A5C0070000020DC040020FEE70000F8B500BF79
:103A6C00F8BC08BC9E467047F8B500BFF8BC08BC53
:043A7C009E467047AB
:103A80000400002000000000000000000000000012
:103A90000000000000000000000000000000000026
:103AA0000000000000000000000000000000000016
:103AB0000000000000000000000000000000000006
:103AC00000000000000000000000000000000000F6
:103AD00000000000000000000000000000000000E6
:103AE0000000000002030405060708090A0B0C0D7C
:103AF0000E0F101000000000000000000000000089
:103B0000010203040607080973637265656E2021CC
:103B10003D204E554C4C0000436F72652F5372632D
:103B20002F6D792E630000004D794D61696E0000A4
:103B3000000C014000000001000200040008001019
:103B400073656C6620213D204E554C4C00000000F2
:103B5000436F72652F5372632F6D7431323233327B
:103B6000612E630062616E6B5F6E756D62657220BF
:103B70003C204D543132323332415F42414E4B5F33
:103B8000434F554E54000000636F6E6669672021F5
:103B90003D204E554C4C00004D7431323233326171
:103BA0005265616453746174757300004D743132F1
:103BB0003233326157616974466F7252656164795C
:103BC000000000004D743132323332615772697433
:103BD000650000004D7431323233326153656C65DB
:103BE000637442616E6B00004D7431323233326166
:103BF000557064617465496D616765004D7431325B
:103C000032333261496E6974000000004D74313204
:103C10003233326147657453637265656E4275660F
:103C200066657200A1A0000013000000436F72657A
:103C30002F5372632F6D743132323332615F68619A
:103C40006C5F73746D3332663178782E63000000D8
:103C50004D74313232333261496E697448616C009F
:103C60004D743132323332615570646174654F7511
:103C700074446174610000004D743132323332613A
:103C8000536574496E7075744461746144697265FA
:103C90006374696F6E0000004D74313232333261EB
:103CA0005365744F757470757444617461446972BE
:103CB000656374696F6E00004D7431323233326166
:103CC000526561644461746100000000646573744E
:103CD000696E6174696F6E20213D204E554C4C0019
:103CE000436F72652F5372632F67726170686963E7
:103CF000732E6300736F7572636520213D204E55EE
:103D00004C4C0000636F6E7465787420213D204E2A
:103D1000554C4C00627974655F686569676874200A
:103D20003E20307500000000666F6E7420213D203B
:103D30004E554C4C000000007465787420213D20E5
:103D40004E554C4C00000000636861725F68656905
:103D5000676874203E20307500000000416E644D9D
:103D600061736B00586F724C656674536869667452
:103D7000416E644D61736B00586F7252696768746D
:103D80005368696674416E644D61736B0000000096
:103D9000436C656172526563740000004472617720
:103DA0005465787400000000FF0103070F1F3F7F78
:103DB000000103070F1F3F7F00FEFCF8F0E0C0800A
:103DC000D43D00082F000D0041000000100000004D
:103DD00020000000100000000000000000000000B3
:103DE00000000000000000000000000000000000D3
:103DF00000000000000000000000000000000000C3
:103E000000000000000000000000000000000000B2
:103E10000000000000100080E0F0F0F878383878FA
:103E2000F8F0F0E0800000FFFFFFFF00000000005E
:103E300000FFFFFFFF0000FFFFFFFF00000000008A
:103E400000FFFFFFFF000001070F0F1F1E1C1C1EBD
:103E50001F0F0F0701001000000080C0E0F0F8F80D
:103E6000F8F8000000000000000307070301FFFF4F
:103E7000FFFF000000000000000000000000FFFF46
:103E8000FFFF0000000000000000000000001F1FF6
:103E90001F1F00000000001000C0E0F0F878783824
:103EA0007878F8F0E0C00000000001010000000098
:103EB00000C0E0FF7F3F0F0000000000C0F0F87E70
:103EC0003F0F07010000000000181E1F1F1F1D1CD0
:103ED0001C1C1C1C1C1C1C001000383838383838BE
:103EE00038387878F8F0E0800000000000E0E0E08A
:103EF000E0E0F0F8FFFF3F0F0000000000000000CE
:103F000000000103FFFFFFFC00001C1C1C1C1C1C0C
:103F10001C1C1E1F0F0F0701001000000000008076
:103F2000F0F8F838000000000000000000C0F8FFC2
:103F3000FF1F010000000000000000E0FCFFFFE7A1
:103F4000E0E0E0E0FFFFFFFFE00000000000000015
:103F5000000000001F1F1F1F00001000F8F8F8F8F5
:103F6000383838383838383838380000FFFFFFFF25
:103F7000E0E0E0E0E0E0C0C0800000000000000001
:103F800000000000010187FFFFFE00001C1C1C1C3C
:103F90001C1C1C1C1E1E0F0F07010010000000003F
:103FA00080C0E0F0F07838380000000000E0FCFF4E
:103FB000FFEFE3E1E0E0E0C0C080000000FFFFFFB2
:103FC00001000000000001CFFFFFFE000001070F0D
:103FD0000F1E1C1C1C1C1E0F0F0701001000F8F800
:103FE000F838383838383838F8F8F87800000000F1
:103FF000000000000080F0FFFF3F03000000000011
:10400000000000C0F8FFFF1F0100000000000000DA
:1040100000001C1F1F0F0000000000000010000027
:1040200000C0F0F078383878F0F0C00000000000F0
:1040300080DFFFFFF8F0F0F8FFFFDF80000000FEF8
:10404000FFFF0301000000000103FFFFFE0000016D
:10405000070F0F1E1C1C1C1C1E0F0F070100100059
:1040600080E0F0F0783838383878F0F0E080000000
:104070007FFFFFF380000000000080FFFFFF0000D3
:104080000001030307070787C7F7FFFF3F0700008B
:104090000000001C1C1E0F0F070301000000001091
:1040A00000E0F0F8F80080E0F0F0F8783878F8F008
:1040B00000FFFFFFFF00FFFFFFFF0000000000FF09
:1040C00000FFFFFFFF00FFFFFFFF0000000000FFF9
:1040D000001F1F1F1F0001070F0F1F1E1C1E1F0F99
:1040E00010E0800080E0F0F0F8783878F8F0F0E048
:1040F00080FFFF00FFFFFFFF0000000000FFFFFF49
:10410000FFFFFF00FFFFFFFF0000000000FFFFFFB9
:10411000FF07010001070F0F1F1E1C1E1F0F0F07B7
:10412000010000002C2066756E6374696F6E3A2082
:1041300000000000617373657274696F6E20222540
:104140007322206661696C65643A2066696C65203B
:10415000222573222C206C696E6520256425732529
:10416000730A0000232D302B20000000686C4C00E7
:10417000656667454647000030313233343536379F
:104180003839414243444546000000003031323363
:104190003435363738396162636465660000000083
:0441A000750100089D
:0441A4004D010008C1
:1041A8000400002000000000C43A0008A43A0008F7
:1041B800843A000800000000000000000000000031
:1041C80000000000000000000000000000000000E7
:1041D80000000000000000000000000000000000D7
:1041E80000000000000000000000000000000000C7
:1041F80000000000000000000000000000000000B7
:104208000000000001000000100000000024F4007D
:0400000508003A1D98
:00000001FF
